{
  "contractName": "E_commerce",
  "abi": [
    {
      "inputs": [],
      "stateMutability": "nonpayable",
      "type": "constructor"
    },
    {
      "anonymous": false,
      "inputs": [
        {
          "indexed": false,
          "internalType": "uint256",
          "name": "_businessId",
          "type": "uint256"
        },
        {
          "indexed": false,
          "internalType": "bytes32",
          "name": "_purchaseId",
          "type": "bytes32"
        }
      ],
      "name": "readingPurchaseEntry",
      "type": "event"
    },
    {
      "inputs": [
        {
          "internalType": "uint256",
          "name": "",
          "type": "uint256"
        }
      ],
      "name": "businesses",
      "outputs": [
        {
          "internalType": "address",
          "name": "businessAddress",
          "type": "address"
        },
        {
          "internalType": "string",
          "name": "name",
          "type": "string"
        },
        {
          "internalType": "string",
          "name": "description",
          "type": "string"
        },
        {
          "internalType": "bool",
          "name": "isValid",
          "type": "bool"
        },
        {
          "internalType": "uint256",
          "name": "counter",
          "type": "uint256"
        },
        {
          "internalType": "uint256",
          "name": "balance",
          "type": "uint256"
        },
        {
          "internalType": "uint256",
          "name": "shareholderCount",
          "type": "uint256"
        }
      ],
      "stateMutability": "view",
      "type": "function",
      "constant": true
    },
    {
      "inputs": [],
      "name": "owner",
      "outputs": [
        {
          "internalType": "address",
          "name": "",
          "type": "address"
        }
      ],
      "stateMutability": "view",
      "type": "function",
      "constant": true
    },
    {
      "inputs": [
        {
          "internalType": "address",
          "name": "",
          "type": "address"
        }
      ],
      "name": "userAddressToBusinesses",
      "outputs": [
        {
          "internalType": "uint256",
          "name": "businessCount",
          "type": "uint256"
        }
      ],
      "stateMutability": "view",
      "type": "function",
      "constant": true
    },
    {
      "inputs": [],
      "name": "getBusinessIdCounter2",
      "outputs": [
        {
          "internalType": "uint256",
          "name": "",
          "type": "uint256"
        }
      ],
      "stateMutability": "view",
      "type": "function",
      "constant": true
    },
    {
      "inputs": [
        {
          "internalType": "uint256",
          "name": "_businessId",
          "type": "uint256"
        },
        {
          "internalType": "address",
          "name": "_shareholder",
          "type": "address"
        }
      ],
      "name": "mapShareHolderToMyBusiness",
      "outputs": [],
      "stateMutability": "nonpayable",
      "type": "function"
    },
    {
      "inputs": [],
      "name": "getShareholderBusinesses",
      "outputs": [
        {
          "internalType": "string[4][]",
          "name": "",
          "type": "string[4][]"
        }
      ],
      "stateMutability": "view",
      "type": "function",
      "constant": true
    },
    {
      "inputs": [],
      "name": "getUserBusinesses",
      "outputs": [
        {
          "internalType": "string[4][]",
          "name": "",
          "type": "string[4][]"
        }
      ],
      "stateMutability": "view",
      "type": "function",
      "constant": true
    },
    {
      "inputs": [
        {
          "internalType": "uint256",
          "name": "_businessId",
          "type": "uint256"
        },
        {
          "internalType": "address",
          "name": "_sender",
          "type": "address"
        }
      ],
      "name": "mapUserAddressToCreatedBusiness",
      "outputs": [],
      "stateMutability": "nonpayable",
      "type": "function"
    },
    {
      "inputs": [
        {
          "internalType": "string",
          "name": "_name",
          "type": "string"
        },
        {
          "internalType": "string",
          "name": "_description",
          "type": "string"
        }
      ],
      "name": "registerBusiness",
      "outputs": [
        {
          "internalType": "uint256",
          "name": "",
          "type": "uint256"
        }
      ],
      "stateMutability": "nonpayable",
      "type": "function"
    },
    {
      "inputs": [],
      "name": "getAllBusinesses",
      "outputs": [
        {
          "internalType": "string[3][]",
          "name": "",
          "type": "string[3][]"
        }
      ],
      "stateMutability": "view",
      "type": "function",
      "constant": true
    },
    {
      "inputs": [
        {
          "internalType": "address",
          "name": "x",
          "type": "address"
        }
      ],
      "name": "toAsciiString",
      "outputs": [
        {
          "internalType": "string",
          "name": "",
          "type": "string"
        }
      ],
      "stateMutability": "pure",
      "type": "function",
      "constant": true
    },
    {
      "inputs": [
        {
          "internalType": "bytes1",
          "name": "b",
          "type": "bytes1"
        }
      ],
      "name": "char",
      "outputs": [
        {
          "internalType": "bytes1",
          "name": "c",
          "type": "bytes1"
        }
      ],
      "stateMutability": "pure",
      "type": "function",
      "constant": true
    },
    {
      "inputs": [
        {
          "internalType": "uint256",
          "name": "_businessId",
          "type": "uint256"
        },
        {
          "internalType": "bytes32",
          "name": "_purchaseId",
          "type": "bytes32"
        },
        {
          "internalType": "uint256",
          "name": "_date",
          "type": "uint256"
        }
      ],
      "name": "makePayment",
      "outputs": [],
      "stateMutability": "payable",
      "type": "function",
      "payable": true
    },
    {
      "inputs": [],
      "name": "getBalance",
      "outputs": [
        {
          "internalType": "uint256",
          "name": "",
          "type": "uint256"
        }
      ],
      "stateMutability": "view",
      "type": "function",
      "constant": true
    },
    {
      "inputs": [
        {
          "internalType": "uint256",
          "name": "_businessId",
          "type": "uint256"
        }
      ],
      "name": "getBusinessBalance",
      "outputs": [
        {
          "internalType": "uint256",
          "name": "",
          "type": "uint256"
        }
      ],
      "stateMutability": "view",
      "type": "function",
      "constant": true
    },
    {
      "inputs": [
        {
          "internalType": "uint256",
          "name": "_businessId",
          "type": "uint256"
        }
      ],
      "name": "getBusinessName",
      "outputs": [
        {
          "internalType": "string",
          "name": "",
          "type": "string"
        }
      ],
      "stateMutability": "view",
      "type": "function",
      "constant": true
    },
    {
      "inputs": [
        {
          "internalType": "uint256",
          "name": "_businessId",
          "type": "uint256"
        }
      ],
      "name": "getBusinessShareholders",
      "outputs": [
        {
          "internalType": "string[]",
          "name": "",
          "type": "string[]"
        }
      ],
      "stateMutability": "view",
      "type": "function",
      "constant": true
    },
    {
      "inputs": [
        {
          "internalType": "uint256",
          "name": "_businessId",
          "type": "uint256"
        },
        {
          "internalType": "uint256",
          "name": "_amount",
          "type": "uint256"
        }
      ],
      "name": "sendViaCall",
      "outputs": [
        {
          "internalType": "bool",
          "name": "",
          "type": "bool"
        }
      ],
      "stateMutability": "nonpayable",
      "type": "function"
    },
    {
      "inputs": [
        {
          "internalType": "uint256",
          "name": "_businessId",
          "type": "uint256"
        },
        {
          "internalType": "bytes32",
          "name": "_purchaseId",
          "type": "bytes32"
        }
      ],
      "name": "getPurchaseEntry",
      "outputs": [
        {
          "internalType": "address",
          "name": "",
          "type": "address"
        },
        {
          "internalType": "uint256",
          "name": "",
          "type": "uint256"
        },
        {
          "internalType": "bool",
          "name": "",
          "type": "bool"
        }
      ],
      "stateMutability": "view",
      "type": "function",
      "constant": true
    },
    {
      "inputs": [
        {
          "internalType": "uint256",
          "name": "_businessId",
          "type": "uint256"
        }
      ],
      "name": "checkPayments",
      "outputs": [
        {
          "internalType": "uint256[2][]",
          "name": "",
          "type": "uint256[2][]"
        }
      ],
      "stateMutability": "view",
      "type": "function",
      "constant": true
    }
  ],
  "bytecode": "0x608060405234801561001057600080fd5b50336000806101000a81548173ffffffffffffffffffffffffffffffffffffffff021916908373ffffffffffffffffffffffffffffffffffffffff1602179055506000600181905550613a58806100686000396000f3fe60806040526004361061011f5760003560e01c80638661009b116100a0578063b984c6ec11610064578063b984c6ec1461042a578063cea3f9301461046d578063d6c0c2c214610496578063ddf7b0bc146104d3578063fc883f24146105105761011f565b80638661009b1461033e5780638da5cb5b1461037b578063924ddb6b146103a657806398c46183146103c25780639a7d00d6146103ed5761011f565b8063569707d1116100e7578063569707d11461021f57806356d3ab6c1461025c5780635d910ec11461028757806369f9ad2f146102c457806370af025a146103015761011f565b806311b48b961461012457806312065fe01461014f5780632b77b4d21461017a5780632c6e7598146101b95780634d1aac52146101f6575b600080fd5b34801561013057600080fd5b5061013961053b565b604051610146919061283c565b60405180910390f35b34801561015b57600080fd5b50610164610545565b604051610171919061283c565b60405180910390f35b34801561018657600080fd5b506101a1600480360381019061019c91906128cd565b61054d565b6040516101b093929190612969565b60405180910390f35b3480156101c557600080fd5b506101e060048036038101906101db91906129cc565b61069d565b6040516101ed9190612a92565b60405180910390f35b34801561020257600080fd5b5061021d60048036038101906102189190612ab4565b61087f565b005b34801561022b57600080fd5b5061024660048036038101906102419190612af4565b6109c9565b6040516102539190612b34565b60405180910390f35b34801561026857600080fd5b50610271610b20565b60405161027e9190612d11565b60405180910390f35b34801561029357600080fd5b506102ae60048036038101906102a99190612e68565b610ec6565b6040516102bb919061283c565b60405180910390f35b3480156102d057600080fd5b506102eb60048036038101906102e69190612f38565b610fbd565b6040516102f89190612f74565b60405180910390f35b34801561030d57600080fd5b50610328600480360381019061032391906129cc565b611003565b604051610335919061283c565b60405180910390f35b34801561034a57600080fd5b5061036560048036038101906103609190612f8f565b611021565b6040516103729190613116565b60405180910390f35b34801561038757600080fd5b5061039061154b565b60405161039d9190613138565b60405180910390f35b6103c060048036038101906103bb9190613153565b61156f565b005b3480156103ce57600080fd5b506103d7611776565b6040516103e4919061330a565b60405180910390f35b3480156103f957600080fd5b50610414600480360381019061040f9190612f8f565b6119ce565b6040516104219190612a92565b60405180910390f35b34801561043657600080fd5b50610451600480360381019061044c9190612f8f565b611aa2565b604051610464979695949392919061332c565b60405180910390f35b34801561047957600080fd5b50610494600480360381019061048f9190612ab4565b611c21565b005b3480156104a257600080fd5b506104bd60048036038101906104b89190612f8f565b611eb8565b6040516104ca919061283c565b60405180910390f35b3480156104df57600080fd5b506104fa60048036038101906104f59190612f8f565b6120a4565b6040516105079190613457565b60405180910390f35b34801561051c57600080fd5b506105256121e1565b6040516105329190612d11565b60405180910390f35b6000600154905090565b600047905090565b6000806000846002600082815260200190815260200160002060030160009054906101000a900460ff161561069557856002600082815260200190815260200160002060000160009054906101000a900473ffffffffffffffffffffffffffffffffffffffff1673ffffffffffffffffffffffffffffffffffffffff163373ffffffffffffffffffffffffffffffffffffffff1614156106935760056000888152602001908152602001600020600087815260200190815260200160002060000160009054906101000a900473ffffffffffffffffffffffffffffffffffffffff1660056000898152602001908152602001600020600088815260200190815260200160002060010154600560008a8152602001908152602001600020600089815260200190815260200160002060030160009054906101000a900460ff169450945094505b505b509250925092565b60606000602867ffffffffffffffff8111156106bc576106bb612d3d565b5b6040519080825280601f01601f1916602001820160405280156106ee5781602001600182028036833780820191505090505b50905060005b601481101561085657600081601361070c91906134a8565b600861071891906134dc565b60026107249190613669565b8573ffffffffffffffffffffffffffffffffffffffff1661074591906136e3565b60f81b9050600060108260f81c61075c9190613721565b60f81b905060008160f81c60106107739190613752565b8360f81c610781919061378d565b60f81b905061078f82610fbd565b8585600261079d91906134dc565b815181106107ae576107ad6137c1565b5b60200101907effffffffffffffffffffffffffffffffffffffffffffffffffffffffffffff1916908160001a9053506107e681610fbd565b8560018660026107f691906134dc565b61080091906137f0565b81518110610811576108106137c1565b5b60200101907effffffffffffffffffffffffffffffffffffffffffffffffffffffffffffff1916908160001a905350505050808061084e90613846565b9150506106f4565b5080604051602001610868919061392d565b604051602081830303815290604052915050919050565b6000600460008373ffffffffffffffffffffffffffffffffffffffff1673ffffffffffffffffffffffffffffffffffffffff168152602001908152602001600020600001549050600460008373ffffffffffffffffffffffffffffffffffffffff1673ffffffffffffffffffffffffffffffffffffffff1681526020019081526020016000206001018390806001815401808255809150506001900390600052602060002001600090919091909150556001600460008473ffffffffffffffffffffffffffffffffffffffff1673ffffffffffffffffffffffffffffffffffffffff1681526020019081526020016000206000015461097e91906137f0565b600460008473ffffffffffffffffffffffffffffffffffffffff1673ffffffffffffffffffffffffffffffffffffffff16815260200190815260200160002060000181905550505050565b6000826002600082815260200190815260200160002060030160009054906101000a900460ff1615610b1957836002600082815260200190815260200160002060000160009054906101000a900473ffffffffffffffffffffffffffffffffffffffff1673ffffffffffffffffffffffffffffffffffffffff163373ffffffffffffffffffffffffffffffffffffffff161415610b17576000803373ffffffffffffffffffffffffffffffffffffffff1686604051610a8790613975565b60006040518083038185875af1925050503d8060008114610ac4576040519150601f19603f3d011682016040523d82523d6000602084013e610ac9565b606091505b50915091508115610b1157856002600089815260200190815260200160002060050154610af691906134a8565b60026000898152602001908152602001600020600501819055505b81945050505b505b5092915050565b60606000600360003373ffffffffffffffffffffffffffffffffffffffff1673ffffffffffffffffffffffffffffffffffffffff16815260200190815260200160002060000154905060008167ffffffffffffffff811115610b8557610b84612d3d565b5b604051908082528060200260200182016040528015610bb35781602001602082028036833780820191505090505b50905060005b82811015610c5257600360003373ffffffffffffffffffffffffffffffffffffffff1673ffffffffffffffffffffffffffffffffffffffff1681526020019081526020016000206001018181548110610c1557610c146137c1565b5b9060005260206000200154828281518110610c3357610c326137c1565b5b6020026020010181815250508080610c4a90613846565b915050610bb9565b5060008267ffffffffffffffff811115610c6f57610c6e612d3d565b5b604051908082528060200260200182016040528015610ca857816020015b610c95612710565b815260200190600190039081610c8d5790505b50905060005b83811015610ebc576000838281518110610ccb57610cca6137c1565b5b602002602001015190506000600260008381526020019081526020016000206001018054610cf8906139b9565b80601f0160208091040260200160405190810160405280929190818152602001828054610d24906139b9565b8015610d715780601f10610d4657610100808354040283529160200191610d71565b820191906000526020600020905b815481529060010190602001808311610d5457829003601f168201915b505050505090506000600260008481526020019081526020016000206002018054610d9b906139b9565b80601f0160208091040260200160405190810160405280929190818152602001828054610dc7906139b9565b8015610e145780601f10610de957610100808354040283529160200191610e14565b820191906000526020600020905b815481529060010190602001808311610df757829003601f168201915b505050505090506000610e5c6002600086815260200190815260200160002060000160009054906101000a900473ffffffffffffffffffffffffffffffffffffffff1661069d565b90506040518060800160405280848152602001838152602001828152602001610e8486612587565b815250868681518110610e9a57610e996137c1565b5b6020026020010181905250505050508080610eb490613846565b915050610cae565b5080935050505090565b600060018054610ed691906137f0565b60018190555060006002600060015481526020019081526020016000209050338160000160006101000a81548173ffffffffffffffffffffffffffffffffffffffff021916908373ffffffffffffffffffffffffffffffffffffffff16021790555083816001019080519060200190610f50929190612737565b5082816002019080519060200190610f69929190612737565b5060018160030160006101000a81548160ff021916908315150217905550600081600401819055506000816005018190555060008160060181905550610fb16001543361087f565b60015491505092915050565b6000600a8260f81c60ff161015610fe85760308260f81c610fde91906139eb565b60f81b9050610ffe565b60578260f81c610ff891906139eb565b60f81b90505b919050565b60046020528060005260406000206000915090508060000154905081565b6060816002600082815260200190815260200160002060030160009054906101000a900460ff161561154557826002600082815260200190815260200160002060000160009054906101000a900473ffffffffffffffffffffffffffffffffffffffff1673ffffffffffffffffffffffffffffffffffffffff163373ffffffffffffffffffffffffffffffffffffffff1614156112715760006002600086815260200190815260200160002060040154905060008167ffffffffffffffff8111156110ef576110ee612d3d565b5b60405190808252806020026020018201604052801561112857816020015b6111156127bd565b81526020019060019003908161110d5790505b50905060005b8281101561126a5760006002600089815260200190815260200160002060080160008381526020019081526020016000205490506000600560008a815260200190815260200160002060008381526020019081526020016000206040518060800160405290816000820160009054906101000a900473ffffffffffffffffffffffffffffffffffffffff1673ffffffffffffffffffffffffffffffffffffffff1673ffffffffffffffffffffffffffffffffffffffff16815260200160018201548152602001600282015481526020016003820160009054906101000a900460ff1615151515815250509050604051806040016040528082604001518152602001826020015181525084848151811061124a576112496137c1565b5b60200260200101819052505050808061126290613846565b91505061112e565b5080945050505b6000600360003373ffffffffffffffffffffffffffffffffffffffff1673ffffffffffffffffffffffffffffffffffffffff168152602001908152602001600020600001541115611543576000600360003373ffffffffffffffffffffffffffffffffffffffff1673ffffffffffffffffffffffffffffffffffffffff16815260200190815260200160002060000154905060005b818110156115405782600360003373ffffffffffffffffffffffffffffffffffffffff1673ffffffffffffffffffffffffffffffffffffffff1681526020019081526020016000206001018281548110611363576113626137c1565b5b9060005260206000200154141561152d5760006002600088815260200190815260200160002060040154905060008167ffffffffffffffff8111156113ab576113aa612d3d565b5b6040519080825280602002602001820160405280156113e457816020015b6113d16127bd565b8152602001906001900390816113c95790505b50905060005b82811015611526576000600260008b815260200190815260200160002060080160008381526020019081526020016000205490506000600560008c815260200190815260200160002060008381526020019081526020016000206040518060800160405290816000820160009054906101000a900473ffffffffffffffffffffffffffffffffffffffff1673ffffffffffffffffffffffffffffffffffffffff1673ffffffffffffffffffffffffffffffffffffffff16815260200160018201548152602001600282015481526020016003820160009054906101000a900460ff16151515158152505090506040518060400160405280826040015181526020018260200151815250848481518110611506576115056137c1565b5b60200260200101819052505050808061151e90613846565b9150506113ea565b5080965050505b808061153890613846565b915050611306565b50505b505b50919050565b60008054906101000a900473ffffffffffffffffffffffffffffffffffffffff1681565b826002600082815260200190815260200160002060030160009054906101000a900460ff16156117705760056000858152602001908152602001600020600084815260200190815260200160002060030160009054906101000a900460ff16156115d857600080fd5b8260026000868152602001908152602001600020600801600060026000888152602001908152602001600020600401548152602001908152602001600020819055506001600260008681526020019081526020016000206004015461163d91906137f0565b600260008681526020019081526020016000206004018190555060405180608001604052803373ffffffffffffffffffffffffffffffffffffffff1681526020013481526020018381526020016001151581525060056000868152602001908152602001600020600085815260200190815260200160002060008201518160000160006101000a81548173ffffffffffffffffffffffffffffffffffffffff021916908373ffffffffffffffffffffffffffffffffffffffff160217905550602082015181600101556040820151816002015560608201518160030160006101000a81548160ff02191690831515021790555090505034600260008681526020019081526020016000206005015461175591906137f0565b60026000868152602001908152602001600020600501819055505b50505050565b6060600060015467ffffffffffffffff81111561179657611795612d3d565b5b6040519080825280602002602001820160405280156117cf57816020015b6117bc6127df565b8152602001906001900390816117b45790505b5090506000600190505b60015481116119c6576000600260008381526020019081526020016000206001018054611805906139b9565b80601f0160208091040260200160405190810160405280929190818152602001828054611831906139b9565b801561187e5780601f106118535761010080835404028352916020019161187e565b820191906000526020600020905b81548152906001019060200180831161186157829003601f168201915b5050505050905060006002600084815260200190815260200160002060020180546118a8906139b9565b80601f01602080910402602001604051908101604052809291908181526020018280546118d4906139b9565b80156119215780601f106118f657610100808354040283529160200191611921565b820191906000526020600020905b81548152906001019060200180831161190457829003601f168201915b5050505050905060006119696002600086815260200190815260200160002060000160009054906101000a900473ffffffffffffffffffffffffffffffffffffffff1661069d565b90506040518060600160405280848152602001838152602001828152508560018661199491906134a8565b815181106119a5576119a46137c1565b5b602002602001018190525050505080806119be90613846565b9150506117d9565b508091505090565b6060816002600082815260200190815260200160002060030160009054906101000a900460ff1615611a9c57600260008481526020019081526020016000206001018054611a1b906139b9565b80601f0160208091040260200160405190810160405280929190818152602001828054611a47906139b9565b8015611a945780601f10611a6957610100808354040283529160200191611a94565b820191906000526020600020905b815481529060010190602001808311611a7757829003601f168201915b505050505091505b50919050565b60026020528060005260406000206000915090508060000160009054906101000a900473ffffffffffffffffffffffffffffffffffffffff1690806001018054611aeb906139b9565b80601f0160208091040260200160405190810160405280929190818152602001828054611b17906139b9565b8015611b645780601f10611b3957610100808354040283529160200191611b64565b820191906000526020600020905b815481529060010190602001808311611b4757829003601f168201915b505050505090806002018054611b79906139b9565b80601f0160208091040260200160405190810160405280929190818152602001828054611ba5906139b9565b8015611bf25780601f10611bc757610100808354040283529160200191611bf2565b820191906000526020600020905b815481529060010190602001808311611bd557829003601f168201915b5050505050908060030160009054906101000a900460ff16908060040154908060050154908060060154905087565b816002600082815260200190815260200160002060030160009054906101000a900460ff1615611eb357826002600082815260200190815260200160002060000160009054906101000a900473ffffffffffffffffffffffffffffffffffffffff1673ffffffffffffffffffffffffffffffffffffffff163373ffffffffffffffffffffffffffffffffffffffff161415611eb1576000600360008573ffffffffffffffffffffffffffffffffffffffff1673ffffffffffffffffffffffffffffffffffffffff168152602001908152602001600020600001549050600360008573ffffffffffffffffffffffffffffffffffffffff1673ffffffffffffffffffffffffffffffffffffffff1681526020019081526020016000206001018590806001815401808255809150506001900390600052602060002001600090919091909150556001600360008673ffffffffffffffffffffffffffffffffffffffff1673ffffffffffffffffffffffffffffffffffffffff16815260200190815260200160002060000154611db591906137f0565b600360008673ffffffffffffffffffffffffffffffffffffffff1673ffffffffffffffffffffffffffffffffffffffff1681526020019081526020016000206000018190555060026000868152602001908152602001600020600701849080600181540180825580915050600190039060005260206000200160009091909190916101000a81548173ffffffffffffffffffffffffffffffffffffffff021916908373ffffffffffffffffffffffffffffffffffffffff16021790555060016002600087815260200190815260200160002060060154611e9591906137f0565b6002600087815260200190815260200160002060060181905550505b505b505050565b6000816002600082815260200190815260200160002060030160009054906101000a900460ff161561209e57826002600082815260200190815260200160002060000160009054906101000a900473ffffffffffffffffffffffffffffffffffffffff1673ffffffffffffffffffffffffffffffffffffffff163373ffffffffffffffffffffffffffffffffffffffff161415611f6957600260008581526020019081526020016000206005015492505b6000600360003373ffffffffffffffffffffffffffffffffffffffff1673ffffffffffffffffffffffffffffffffffffffff16815260200190815260200160002060000154111561209c576000600360003373ffffffffffffffffffffffffffffffffffffffff1673ffffffffffffffffffffffffffffffffffffffff16815260200190815260200160002060000154905060005b818110156120995782600360003373ffffffffffffffffffffffffffffffffffffffff1673ffffffffffffffffffffffffffffffffffffffff168152602001908152602001600020600101828154811061205b5761205a6137c1565b5b9060005260206000200154141561208657600260008781526020019081526020016000206005015494505b808061209190613846565b915050611ffe565b50505b505b50919050565b6060816002600082815260200190815260200160002060030160009054906101000a900460ff16156121db5760006002600085815260200190815260200160002060060154905060008167ffffffffffffffff81111561210757612106612d3d565b5b60405190808252806020026020018201604052801561213a57816020015b60608152602001906001900390816121255790505b50905060005b828110156121d4576121a3600260008881526020019081526020016000206007018281548110612173576121726137c1565b5b9060005260206000200160009054906101000a900473ffffffffffffffffffffffffffffffffffffffff1661069d565b8282815181106121b6576121b56137c1565b5b602002602001018190525080806121cc90613846565b915050612140565b5080935050505b50919050565b60606000600460003373ffffffffffffffffffffffffffffffffffffffff1673ffffffffffffffffffffffffffffffffffffffff16815260200190815260200160002060000154905060008167ffffffffffffffff81111561224657612245612d3d565b5b6040519080825280602002602001820160405280156122745781602001602082028036833780820191505090505b50905060005b8281101561231357600460003373ffffffffffffffffffffffffffffffffffffffff1673ffffffffffffffffffffffffffffffffffffffff16815260200190815260200160002060010181815481106122d6576122d56137c1565b5b90600052602060002001548282815181106122f4576122f36137c1565b5b602002602001018181525050808061230b90613846565b91505061227a565b5060008267ffffffffffffffff8111156123305761232f612d3d565b5b60405190808252806020026020018201604052801561236957816020015b612356612710565b81526020019060019003908161234e5790505b50905060005b8381101561257d57600083828151811061238c5761238b6137c1565b5b6020026020010151905060006002600083815260200190815260200160002060010180546123b9906139b9565b80601f01602080910402602001604051908101604052809291908181526020018280546123e5906139b9565b80156124325780601f1061240757610100808354040283529160200191612432565b820191906000526020600020905b81548152906001019060200180831161241557829003601f168201915b50505050509050600060026000848152602001908152602001600020600201805461245c906139b9565b80601f0160208091040260200160405190810160405280929190818152602001828054612488906139b9565b80156124d55780601f106124aa576101008083540402835291602001916124d5565b820191906000526020600020905b8154815290600101906020018083116124b857829003601f168201915b50505050509050600061251d6002600086815260200190815260200160002060000160009054906101000a900473ffffffffffffffffffffffffffffffffffffffff1661069d565b9050604051806080016040528084815260200183815260200182815260200161254586612587565b81525086868151811061255b5761255a6137c1565b5b602002602001018190525050505050808061257590613846565b91505061236f565b5080935050505090565b606060008214156125cf576040518060400160405280600181526020017f3000000000000000000000000000000000000000000000000000000000000000815250905061270b565b600082905060005b600082146126015780806125ea90613846565b915050600a826125fa91906136e3565b91506125d7565b60008167ffffffffffffffff81111561261d5761261c612d3d565b5b6040519080825280601f01601f19166020018201604052801561264f5781602001600182028036833780820191505090505b50905060008290505b600086146127035760018161266d91906134a8565b90506000600a808861267f91906136e3565b61268991906134dc565b8761269491906134a8565b60306126a091906139eb565b905060008160f81b9050808484815181106126be576126bd6137c1565b5b60200101907effffffffffffffffffffffffffffffffffffffffffffffffffffffffffffff1916908160001a905350600a886126fa91906136e3565b97505050612658565b819450505050505b919050565b60405180608001604052806004905b606081526020019060019003908161271f5790505090565b828054612743906139b9565b90600052602060002090601f01602090048101928261276557600085556127ac565b82601f1061277e57805160ff19168380011785556127ac565b828001600101855582156127ac579182015b828111156127ab578251825591602001919060010190612790565b5b5090506127b99190612806565b5090565b6040518060400160405280600290602082028036833780820191505090505090565b60405180606001604052806003905b60608152602001906001900390816127ee5790505090565b5b8082111561281f576000816000905550600101612807565b5090565b6000819050919050565b61283681612823565b82525050565b6000602082019050612851600083018461282d565b92915050565b6000604051905090565b600080fd5b600080fd5b61287481612823565b811461287f57600080fd5b50565b6000813590506128918161286b565b92915050565b6000819050919050565b6128aa81612897565b81146128b557600080fd5b50565b6000813590506128c7816128a1565b92915050565b600080604083850312156128e4576128e3612861565b5b60006128f285828601612882565b9250506020612903858286016128b8565b9150509250929050565b600073ffffffffffffffffffffffffffffffffffffffff82169050919050565b60006129388261290d565b9050919050565b6129488161292d565b82525050565b60008115159050919050565b6129638161294e565b82525050565b600060608201905061297e600083018661293f565b61298b602083018561282d565b612998604083018461295a565b949350505050565b6129a98161292d565b81146129b457600080fd5b50565b6000813590506129c6816129a0565b92915050565b6000602082840312156129e2576129e1612861565b5b60006129f0848285016129b7565b91505092915050565b600081519050919050565b600082825260208201905092915050565b60005b83811015612a33578082015181840152602081019050612a18565b83811115612a42576000848401525b50505050565b6000601f19601f8301169050919050565b6000612a64826129f9565b612a6e8185612a04565b9350612a7e818560208601612a15565b612a8781612a48565b840191505092915050565b60006020820190508181036000830152612aac8184612a59565b905092915050565b60008060408385031215612acb57612aca612861565b5b6000612ad985828601612882565b9250506020612aea858286016129b7565b9150509250929050565b60008060408385031215612b0b57612b0a612861565b5b6000612b1985828601612882565b9250506020612b2a85828601612882565b9150509250929050565b6000602082019050612b49600083018461295a565b92915050565b600081519050919050565b600082825260208201905092915050565b6000819050602082019050919050565b600060049050919050565b600081905092915050565b6000819050919050565b600082825260208201905092915050565b6000612bb7826129f9565b612bc18185612b9b565b9350612bd1818560208601612a15565b612bda81612a48565b840191505092915050565b6000612bf18383612bac565b905092915050565b6000602082019050919050565b6000612c1182612b7b565b612c1b8185612b86565b935083602082028501612c2d85612b91565b8060005b85811015612c695784840389528151612c4a8582612be5565b9450612c5583612bf9565b925060208a01995050600181019050612c31565b50829750879550505050505092915050565b6000612c878383612c06565b905092915050565b6000602082019050919050565b6000612ca782612b4f565b612cb18185612b5a565b935083602082028501612cc385612b6b565b8060005b85811015612cff5784840389528151612ce08582612c7b565b9450612ceb83612c8f565b925060208a01995050600181019050612cc7565b50829750879550505050505092915050565b60006020820190508181036000830152612d2b8184612c9c565b905092915050565b600080fd5b600080fd5b7f4e487b7100000000000000000000000000000000000000000000000000000000600052604160045260246000fd5b612d7582612a48565b810181811067ffffffffffffffff82111715612d9457612d93612d3d565b5b80604052505050565b6000612da7612857565b9050612db38282612d6c565b919050565b600067ffffffffffffffff821115612dd357612dd2612d3d565b5b612ddc82612a48565b9050602081019050919050565b82818337600083830152505050565b6000612e0b612e0684612db8565b612d9d565b905082815260208101848484011115612e2757612e26612d38565b5b612e32848285612de9565b509392505050565b600082601f830112612e4f57612e4e612d33565b5b8135612e5f848260208601612df8565b91505092915050565b60008060408385031215612e7f57612e7e612861565b5b600083013567ffffffffffffffff811115612e9d57612e9c612866565b5b612ea985828601612e3a565b925050602083013567ffffffffffffffff811115612eca57612ec9612866565b5b612ed685828601612e3a565b9150509250929050565b60007fff0000000000000000000000000000000000000000000000000000000000000082169050919050565b612f1581612ee0565b8114612f2057600080fd5b50565b600081359050612f3281612f0c565b92915050565b600060208284031215612f4e57612f4d612861565b5b6000612f5c84828501612f23565b91505092915050565b612f6e81612ee0565b82525050565b6000602082019050612f896000830184612f65565b92915050565b600060208284031215612fa557612fa4612861565b5b6000612fb384828501612882565b91505092915050565b600081519050919050565b600082825260208201905092915050565b6000819050602082019050919050565b600060029050919050565b600081905092915050565b6000819050919050565b61301181612823565b82525050565b60006130238383613008565b60208301905092915050565b6000602082019050919050565b61304581612fe8565b61304f8184612ff3565b925061305a82612ffe565b8060005b8381101561308b5781516130728782613017565b965061307d8361302f565b92505060018101905061305e565b505050505050565b600061309f838361303c565b60408301905092915050565b6000602082019050919050565b60006130c382612fbc565b6130cd8185612fc7565b93506130d883612fd8565b8060005b838110156131095781516130f08882613093565b97506130fb836130ab565b9250506001810190506130dc565b5085935050505092915050565b6000602082019050818103600083015261313081846130b8565b905092915050565b600060208201905061314d600083018461293f565b92915050565b60008060006060848603121561316c5761316b612861565b5b600061317a86828701612882565b935050602061318b868287016128b8565b925050604061319c86828701612882565b9150509250925092565b600081519050919050565b600082825260208201905092915050565b6000819050602082019050919050565b600060039050919050565b600081905092915050565b6000819050919050565b6000602082019050919050565b600061320a826131d2565b61321481856131dd565b935083602082028501613226856131e8565b8060005b8581101561326257848403895281516132438582612be5565b945061324e836131f2565b925060208a0199505060018101905061322a565b50829750879550505050505092915050565b600061328083836131ff565b905092915050565b6000602082019050919050565b60006132a0826131a6565b6132aa81856131b1565b9350836020820285016132bc856131c2565b8060005b858110156132f857848403895281516132d98582613274565b94506132e483613288565b925060208a019950506001810190506132c0565b50829750879550505050505092915050565b600060208201905081810360008301526133248184613295565b905092915050565b600060e082019050613341600083018a61293f565b81810360208301526133538189612a59565b905081810360408301526133678188612a59565b9050613376606083018761295a565b613383608083018661282d565b61339060a083018561282d565b61339d60c083018461282d565b98975050505050505050565b600081519050919050565b600082825260208201905092915050565b6000819050602082019050919050565b6000602082019050919050565b60006133ed826133a9565b6133f781856133b4565b935083602082028501613409856133c5565b8060005b8581101561344557848403895281516134268582612be5565b9450613431836133d5565b925060208a0199505060018101905061340d565b50829750879550505050505092915050565b6000602082019050818103600083015261347181846133e2565b905092915050565b7f4e487b7100000000000000000000000000000000000000000000000000000000600052601160045260246000fd5b60006134b382612823565b91506134be83612823565b9250828210156134d1576134d0613479565b5b828203905092915050565b60006134e782612823565b91506134f283612823565b9250817fffffffffffffffffffffffffffffffffffffffffffffffffffffffffffffffff048311821515161561352b5761352a613479565b5b828202905092915050565b60008160011c9050919050565b6000808291508390505b600185111561358d5780860481111561356957613568613479565b5b60018516156135785780820291505b808102905061358685613536565b945061354d565b94509492505050565b6000826135a65760019050613662565b816135b45760009050613662565b81600181146135ca57600281146135d457613603565b6001915050613662565b60ff8411156135e6576135e5613479565b5b8360020a9150848211156135fd576135fc613479565b5b50613662565b5060208310610133831016604e8410600b84101617156136385782820a90508381111561363357613632613479565b5b613662565b6136458484846001613543565b9250905081840481111561365c5761365b613479565b5b81810290505b9392505050565b600061367482612823565b915061367f83612823565b92506136ac7fffffffffffffffffffffffffffffffffffffffffffffffffffffffffffffffff8484613596565b905092915050565b7f4e487b7100000000000000000000000000000000000000000000000000000000600052601260045260246000fd5b60006136ee82612823565b91506136f983612823565b925082613709576137086136b4565b5b828204905092915050565b600060ff82169050919050565b600061372c82613714565b915061373783613714565b925082613747576137466136b4565b5b828204905092915050565b600061375d82613714565b915061376883613714565b92508160ff048311821515161561378257613781613479565b5b828202905092915050565b600061379882613714565b91506137a383613714565b9250828210156137b6576137b5613479565b5b828203905092915050565b7f4e487b7100000000000000000000000000000000000000000000000000000000600052603260045260246000fd5b60006137fb82612823565b915061380683612823565b9250827fffffffffffffffffffffffffffffffffffffffffffffffffffffffffffffffff0382111561383b5761383a613479565b5b828201905092915050565b600061385182612823565b91507fffffffffffffffffffffffffffffffffffffffffffffffffffffffffffffffff82141561388457613883613479565b5b600182019050919050565b600081905092915050565b7f3078000000000000000000000000000000000000000000000000000000000000600082015250565b60006138d060028361388f565b91506138db8261389a565b600282019050919050565b600081519050919050565b600081905092915050565b6000613907826138e6565b61391181856138f1565b9350613921818560208601612a15565b80840191505092915050565b6000613938826138c3565b915061394482846138fc565b915081905092915050565b50565b600061395f6000836138f1565b915061396a8261394f565b600082019050919050565b600061398082613952565b9150819050919050565b7f4e487b7100000000000000000000000000000000000000000000000000000000600052602260045260246000fd5b600060028204905060018216806139d157607f821691505b602082108114156139e5576139e461398a565b5b50919050565b60006139f682613714565b9150613a0183613714565b92508260ff03821115613a1757613a16613479565b5b82820190509291505056fea264697066735822122044203c94a6eb78c77e2d1842044834db353a2c00fa037012d07dc99b9517e84e64736f6c634300080b0033",
  "immutableReferences": {},
  "source": "pragma solidity  >=0.4.22 <0.9.0;\r\npragma experimental ABIEncoderV2;\r\n\r\ncontract E_commerce {\r\n    address public owner;\r\n\r\n    /*  Keep track of businessId in order to facilitate entry \r\n        of a new businessId without clash\r\n        Akin to primary key auto increment\r\n    */\r\n    uint256 businessIdCounter;\r\n\r\n    \r\n    mapping (uint256 => Business) public businesses;\r\n    struct Business {\r\n        address businessAddress;\r\n        string name;\r\n        string description;\r\n        bool isValid;\r\n        uint counter;\r\n        uint256 balance;\r\n        uint shareholderCount;\r\n        address[] shareholders;\r\n        mapping (uint => bytes32) counterToByte;\r\n    }\r\n\r\n    // Map shareholders to businesses\r\n    mapping (address => UserInfo) shareHoldersToBusinesses;\r\n\r\n    // Maps adddress to every business associated with it\r\n    mapping (address => UserInfo) public userAddressToBusinesses;\r\n    struct UserInfo {\r\n        uint businessCount;\r\n        uint256[] userBusinesses;\r\n    }\r\n\r\n\r\n    /// businessId maps to Purchase\r\n    mapping(uint => mapping(bytes32 => Purchase)) purchases;\r\n    struct Purchase {\r\n        address buyer;\r\n        uint256 amount;\r\n        uint256 date;\r\n        bool isRecorded;\r\n    }\r\n\r\n\r\n    // Constructor\r\n    constructor() {\r\n        // the account that deploys the contract is the owner of the contract\r\n        owner = msg.sender;\r\n        // initialize businessId counter to 0\r\n        businessIdCounter = 0;\r\n    }\r\n\r\n    function getBusinessIdCounter2 () public view returns (uint){\r\n        return businessIdCounter;\r\n    }\r\n\r\n    // Map shareholder to merchant's business\r\n    function mapShareHolderToMyBusiness(uint256 _businessId, address _shareholder) public\r\n            businessExists(_businessId) isOwner(_businessId){\r\n        uint shareholderBusinessesCount = shareHoldersToBusinesses[_shareholder].businessCount;\r\n        shareHoldersToBusinesses[_shareholder].userBusinesses.push(_businessId);\r\n        shareHoldersToBusinesses[_shareholder].businessCount = shareHoldersToBusinesses[_shareholder].businessCount + 1; \r\n        businesses[_businessId].shareholders.push(_shareholder);\r\n        businesses[_businessId].shareholderCount = businesses[_businessId].shareholderCount + 1;\r\n    }\r\n\r\n    function getShareholderBusinesses() public view returns (string [4][] memory){\r\n        uint shareholderBusinessCount = shareHoldersToBusinesses[msg.sender].businessCount;\r\n        uint256 [] memory shareholderBusinessesIds = new uint256[](shareholderBusinessCount);\r\n        for (uint i = 0; i < shareholderBusinessCount; i++){\r\n            shareholderBusinessesIds[i] = shareHoldersToBusinesses[msg.sender].userBusinesses[i];\r\n        }\r\n\r\n        string [4][] memory myBusinessesInfo = new string[4][](shareholderBusinessCount);\r\n        \r\n        for (uint256 i = 0; i < shareholderBusinessCount; i++){\r\n            uint256 bId = shareholderBusinessesIds[i];\r\n            string memory bName = businesses[bId].name;\r\n            string memory bDescription = businesses[bId].description;\r\n            string memory bAddress =  toAsciiString(businesses[bId].businessAddress);\r\n            myBusinessesInfo[i] = [bName, bDescription, bAddress, uint2str(bId)];\r\n        }\r\n        return myBusinessesInfo;\r\n    }\r\n\r\n    function getUserBusinesses() public view returns (string [4][] memory){\r\n        \r\n        uint userBusinessCount = userAddressToBusinesses[msg.sender].businessCount;\r\n        uint256 [] memory userBusinessesIds = new uint256[](userBusinessCount);\r\n        for (uint i = 0; i < userBusinessCount; i++){\r\n            userBusinessesIds[i] = userAddressToBusinesses[msg.sender].userBusinesses[i];\r\n        }\r\n\r\n        string [4][] memory myBusinessesInfo = new string[4][](userBusinessCount);\r\n        \r\n        for (uint256 i = 0; i < userBusinessCount; i++){\r\n            uint256 bId = userBusinessesIds[i];\r\n            string memory bName = businesses[bId].name;\r\n            string memory bDescription = businesses[bId].description;\r\n            string memory bAddress =  toAsciiString(businesses[bId].businessAddress);\r\n\r\n            myBusinessesInfo[i] = [bName, bDescription, bAddress, uint2str(bId)];\r\n        }\r\n        return myBusinessesInfo;\r\n\r\n        \r\n    }\r\n    modifier userExists(){\r\n        if (userAddressToBusinesses[msg.sender].businessCount > 0){\r\n            _;\r\n        }\r\n    }\r\n\r\n\r\n    function mapUserAddressToCreatedBusiness(uint256 _businessId, address _sender) public {\r\n        uint userBusinessesCount = userAddressToBusinesses[_sender].businessCount;\r\n        userAddressToBusinesses[_sender].userBusinesses.push(_businessId);\r\n        userAddressToBusinesses[_sender].businessCount = userAddressToBusinesses[_sender].businessCount + 1;\r\n    }\r\n\r\n    // Register a new business\r\n    function registerBusiness(string memory _name, string memory _description) public \r\n        returns (uint256) {\r\n            businessIdCounter = businessIdCounter + 1;\r\n            Business storage newBusiness = businesses[businessIdCounter];\r\n            newBusiness.businessAddress = msg.sender;\r\n            newBusiness.name = _name;\r\n            newBusiness.description = _description;\r\n            newBusiness.isValid = true;\r\n            newBusiness.counter = 0;\r\n            newBusiness.balance = 0;\r\n            newBusiness.shareholderCount = 0;\r\n\r\n            mapUserAddressToCreatedBusiness(businessIdCounter, msg.sender);\r\n\r\n            return businessIdCounter;\r\n    }\r\n\r\n    // Get all businesses\r\n    function getAllBusinesses() public view returns (string [3][] memory){\r\n        string [3][] memory businessesInfo = new string[3][](businessIdCounter);\r\n        \r\n        for (uint256 i = 1; i <= businessIdCounter; i++){\r\n            string memory bName = businesses[i].name;\r\n            string memory bDescription = businesses[i].description;\r\n            string memory bAddress =  toAsciiString(businesses[i].businessAddress);\r\n            businessesInfo[i-1] = [bName, bDescription, bAddress];\r\n        }\r\n        return businessesInfo;\r\n    }\r\n\r\n    \r\n\r\n    function toAsciiString(address x) public pure returns (string memory) {\r\n        bytes memory s = new bytes(40);\r\n        for (uint i = 0; i < 20; i++) {\r\n            bytes1 b = bytes1(uint8(uint(uint160(x)) / (2**(8*(19 - i)))));\r\n            bytes1 hi = bytes1(uint8(b) / 16);\r\n            bytes1 lo = bytes1(uint8(b) - 16 * uint8(hi));\r\n            s[2*i] = char(hi);\r\n            s[2*i+1] = char(lo);            \r\n        }\r\n        return string(abi.encodePacked(\"0x\",s));\r\n    }\r\n    function char(bytes1 b) public pure returns (bytes1 c) {\r\n        if (uint8(b) < 10) return bytes1(uint8(b) + 0x30);\r\n        else return bytes1(uint8(b) + 0x57);\r\n    }\r\n\r\n    // Function to accept payment\r\n    function makePayment(uint256 _businessId, bytes32 _purchaseId, uint256 _date) \r\n            external businessExists(_businessId) payable{\r\n        // Verify that no entry with similar purchaseId exists for that business\r\n        require(!purchases[_businessId][_purchaseId].isRecorded);\r\n        \r\n        // Insert mapping for counter to bytes32\r\n        businesses[_businessId].counterToByte[businesses[_businessId].counter] = _purchaseId;\r\n        // increase counter\r\n        businesses[_businessId].counter = businesses[_businessId].counter + 1;\r\n\r\n        // insert purchase entry\r\n        purchases[_businessId][_purchaseId] = Purchase(msg.sender, msg.value, _date, true);\r\n        // increase balance of account\r\n        businesses[_businessId].balance = businesses[_businessId].balance + msg.value;\r\n\r\n    }\r\n\r\n    // Get balance of account\r\n    function getBalance() public view returns (uint) {\r\n        return address(this).balance;\r\n    }\r\n\r\n    function getBusinessBalance(uint256 _businessId) public view\r\n            businessExists(_businessId) isOwnerOrShareholder(_businessId) returns (uint256){\r\n        return businesses[_businessId].balance;\r\n    }\r\n    function getBusinessName(uint256 _businessId) public view\r\n            businessExists(_businessId) returns (string memory){\r\n        return businesses[_businessId].name;\r\n    }\r\n    function getBusinessShareholders(uint256 _businessId) public view \r\n            businessExists(_businessId) returns (string[] memory){\r\n        \r\n        uint256 shareholdersCount = businesses[_businessId].shareholderCount;\r\n        string[] memory shareholdersArr = new string[](shareholdersCount);\r\n        for (uint256 i = 0; i < shareholdersCount; i++){\r\n            shareholdersArr[i] = toAsciiString(businesses[_businessId].shareholders[i]);\r\n        }\r\n        return shareholdersArr;\r\n    }            \r\n\r\n    // Send ether from business account\r\n    function sendViaCall(uint256 _businessId, uint256 _amount) public \r\n            businessExists(_businessId) isOwner(_businessId) returns (bool){\r\n        (bool sent, bytes memory data) = payable(msg.sender).call{value: _amount}(\"\");\r\n        if (sent){\r\n            businesses[_businessId].balance = businesses[_businessId].balance - _amount;\r\n        }\r\n        return sent;\r\n    }\r\n\r\n\r\n    // Getter for specific purchase record since purchases is not public\r\n    function getPurchaseEntry(uint256 _businessId, bytes32 _purchaseId) \r\n             public view businessExists(_businessId) isOwner(_businessId) returns (address, uint256, bool){\r\n        //require(purchases[_businessId][_purchaseId].isRecorded);\r\n        //emit readingPurchaseEntry(_businessId, _purchaseId);\r\n        return (purchases[_businessId][_purchaseId].buyer, purchases[_businessId][_purchaseId].amount, purchases[_businessId][_purchaseId].isRecorded);\r\n    }\r\n\r\n    // modifier to ensure that business exists\r\n    modifier businessExists(uint256 _businessId){\r\n        if (businesses[_businessId].isValid){\r\n            _;\r\n        }\r\n    }\r\n\r\n    modifier isOwnerOrShareholder(uint256 _businessId){\r\n        if (msg.sender == businesses[_businessId].businessAddress){\r\n            // Match found, user is owner\r\n            _;\r\n        }\r\n        if (shareHoldersToBusinesses[msg.sender].businessCount > 0){\r\n            uint256 businessCount = shareHoldersToBusinesses[msg.sender].businessCount;\r\n            for (uint256 i =0; i < businessCount; i++){\r\n                if (shareHoldersToBusinesses[msg.sender].userBusinesses[i] == _businessId){\r\n                    // Match found, user is shareholder\r\n                    _;\r\n                }\r\n            }\r\n        }\r\n    }\r\n    // event for entering getter purchaseentry getter\r\n    event readingPurchaseEntry(uint256 _businessId, bytes32 _purchaseId);\r\n    \r\n    // Check payment data\r\n    function checkPayments(uint256 _businessId)\r\n             public view businessExists(_businessId) isOwnerOrShareholder(_businessId) \r\n             returns (uint256[2][] memory) {\r\n        // If here,, the person is the owner of the account\r\n        uint count = businesses[_businessId].counter;\r\n        uint256 [2][] memory purchaseInfo = new uint256[2][](count);\r\n        for (uint i = 0; i < count; i++){\r\n            bytes32 currentKey = businesses[_businessId].counterToByte[i];\r\n            Purchase memory currentPurchase = purchases[_businessId][currentKey];\r\n            purchaseInfo[i] = [currentPurchase.date, currentPurchase.amount];\r\n        }\r\n        \r\n        return purchaseInfo;\r\n    }\r\n    modifier isOwner(uint256 _businessId) {\r\n        if (msg.sender == businesses[_businessId].businessAddress){\r\n            _;\r\n        }\r\n    }\r\n\r\n    function uint2str(uint _i) internal pure returns (string memory _uintAsString) {\r\n        if (_i == 0) {\r\n            return \"0\";\r\n        }\r\n        uint j = _i;\r\n        uint len;\r\n        while (j != 0) {\r\n            len++;\r\n            j /= 10;\r\n        }\r\n        bytes memory bstr = new bytes(len);\r\n        uint k = len;\r\n        while (_i != 0) {\r\n            k = k-1;\r\n            uint8 temp = (48 + uint8(_i - _i / 10 * 10));\r\n            bytes1 b1 = bytes1(temp);\r\n            bstr[k] = b1;\r\n            _i /= 10;\r\n        }\r\n        return string(bstr);\r\n    }\r\n    \r\n\r\n\r\n}",
  "sourcePath": "C:\\Users\\admin\\Documents\\e-commerce-blockchain\\contracts\\E_commerce.sol",
  "compiler": {
    "name": "solc",
    "version": "0.8.11+commit.d7f03943.Emscripten.clang"
  },
  "schemaVersion": "3.4.6",
  "updatedAt": "2022-04-03T22:44:38.126Z",
  "networkType": "ethereum",
  "devdoc": {
    "kind": "dev",
    "methods": {},
    "version": 1
  },
  "userdoc": {
    "kind": "user",
    "methods": {},
    "version": 1
  }
}